{
  "_format": "hh-sol-artifact-1",
  "contractName": "CryptoForum",
  "sourceName": "contracts/CryptoForum.sol",
  "abi": [
    {
      "inputs": [],
      "stateMutability": "nonpayable",
      "type": "constructor"
    },
    {
      "anonymous": false,
      "inputs": [
        {
          "indexed": false,
          "internalType": "address",
          "name": "sender",
          "type": "address"
        },
        {
          "indexed": false,
          "internalType": "uint256",
          "name": "topicId",
          "type": "uint256"
        },
        {
          "indexed": false,
          "internalType": "uint256",
          "name": "commentId",
          "type": "uint256"
        }
      ],
      "name": "CommentCreated",
      "type": "event"
    },
    {
      "anonymous": false,
      "inputs": [
        {
          "indexed": false,
          "internalType": "address",
          "name": "sender",
          "type": "address"
        },
        {
          "indexed": false,
          "internalType": "uint256",
          "name": "topicId",
          "type": "uint256"
        }
      ],
      "name": "TopicCreated",
      "type": "event"
    },
    {
      "inputs": [
        {
          "internalType": "uint256",
          "name": "",
          "type": "uint256"
        }
      ],
      "name": "comments",
      "outputs": [
        {
          "internalType": "uint256",
          "name": "topicId",
          "type": "uint256"
        },
        {
          "internalType": "string",
          "name": "message",
          "type": "string"
        },
        {
          "internalType": "address",
          "name": "author",
          "type": "address"
        },
        {
          "internalType": "uint256",
          "name": "createdAt",
          "type": "uint256"
        }
      ],
      "stateMutability": "view",
      "type": "function"
    },
    {
      "inputs": [
        {
          "internalType": "string",
          "name": "_message",
          "type": "string"
        },
        {
          "internalType": "uint256",
          "name": "_topicId",
          "type": "uint256"
        }
      ],
      "name": "createComment",
      "outputs": [],
      "stateMutability": "nonpayable",
      "type": "function"
    },
    {
      "inputs": [
        {
          "internalType": "string",
          "name": "_title",
          "type": "string"
        },
        {
          "internalType": "string",
          "name": "_message",
          "type": "string"
        }
      ],
      "name": "createTopic",
      "outputs": [],
      "stateMutability": "nonpayable",
      "type": "function"
    },
    {
      "inputs": [
        {
          "internalType": "uint256",
          "name": "_topicId",
          "type": "uint256"
        },
        {
          "internalType": "uint256",
          "name": "_prevCommentId",
          "type": "uint256"
        }
      ],
      "name": "getNextComment",
      "outputs": [
        {
          "components": [
            {
              "internalType": "uint256",
              "name": "topicId",
              "type": "uint256"
            },
            {
              "internalType": "string",
              "name": "message",
              "type": "string"
            },
            {
              "internalType": "address",
              "name": "author",
              "type": "address"
            },
            {
              "internalType": "uint256",
              "name": "createdAt",
              "type": "uint256"
            }
          ],
          "internalType": "struct CryptoForum.Comment",
          "name": "",
          "type": "tuple"
        }
      ],
      "stateMutability": "view",
      "type": "function"
    },
    {
      "inputs": [
        {
          "internalType": "address",
          "name": "",
          "type": "address"
        }
      ],
      "name": "nicknames",
      "outputs": [
        {
          "internalType": "string",
          "name": "",
          "type": "string"
        }
      ],
      "stateMutability": "view",
      "type": "function"
    },
    {
      "inputs": [
        {
          "internalType": "string",
          "name": "desiredNickname",
          "type": "string"
        }
      ],
      "name": "setNickname",
      "outputs": [],
      "stateMutability": "nonpayable",
      "type": "function"
    },
    {
      "inputs": [
        {
          "internalType": "uint256",
          "name": "",
          "type": "uint256"
        }
      ],
      "name": "topics",
      "outputs": [
        {
          "internalType": "string",
          "name": "title",
          "type": "string"
        },
        {
          "internalType": "string",
          "name": "message",
          "type": "string"
        },
        {
          "internalType": "address",
          "name": "author",
          "type": "address"
        },
        {
          "internalType": "uint256",
          "name": "createdAt",
          "type": "uint256"
        }
      ],
      "stateMutability": "view",
      "type": "function"
    }
  ],
  "bytecode": "0x608060405234801561001057600080fd5b50611288806100206000396000f3fe608060405234801561001057600080fd5b506004361061007d5760003560e01c80638ebb4c151161005b5780638ebb4c15146100ed578063909151b514610120578063f6aaa86714610150578063f72ead13146101805761007d565b80630743c33a1461008257806318d9adab1461009e5780631c5d9faa146100d1575b600080fd5b61009c60048036038101906100979190610a04565b61019c565b005b6100b860048036038101906100b39190610ab2565b610294565b6040516100c89493929190610bae565b60405180910390f35b6100eb60048036038101906100e69190610c01565b610404565b005b61010760048036038101906101029190610ab2565b610453565b6040516101179493929190610c4a565b60405180910390f35b61013a60048036038101906101359190610cc2565b61053b565b6040516101479190610cef565b60405180910390f35b61016a60048036038101906101659190610d11565b6105db565b6040516101779190610e1c565b60405180910390f35b61019a60048036038101906101959190610e3e565b610780565b005b8061040081511161028f57600060405180608001604052808581526020018481526020013373ffffffffffffffffffffffffffffffffffffffff1681526020014281525090506001819080600181540180825580915050600190039060005260206000209060040201600090919091909150600082015181600001908161022391906110a6565b50602082015181600101908161023991906110a6565b5060408201518160020160006101000a81548173ffffffffffffffffffffffffffffffffffffffff021916908373ffffffffffffffffffffffffffffffffffffffff160217905550606082015181600301555050505b505050565b600181815481106102a457600080fd5b90600052602060002090600402016000915090508060000180546102c790610ec9565b80601f01602080910402602001604051908101604052809291908181526020018280546102f390610ec9565b80156103405780601f1061031557610100808354040283529160200191610340565b820191906000526020600020905b81548152906001019060200180831161032357829003601f168201915b50505050509080600101805461035590610ec9565b80601f016020809104026020016040519081016040528092919081815260200182805461038190610ec9565b80156103ce5780601f106103a3576101008083540402835291602001916103ce565b820191906000526020600020905b8154815290600101906020018083116103b157829003601f168201915b5050505050908060020160009054906101000a900473ffffffffffffffffffffffffffffffffffffffff16908060030154905084565b806000803373ffffffffffffffffffffffffffffffffffffffff1673ffffffffffffffffffffffffffffffffffffffff168152602001908152602001600020908161044f91906110a6565b5050565b6002818154811061046357600080fd5b906000526020600020906004020160009150905080600001549080600101805461048c90610ec9565b80601f01602080910402602001604051908101604052809291908181526020018280546104b890610ec9565b80156105055780601f106104da57610100808354040283529160200191610505565b820191906000526020600020905b8154815290600101906020018083116104e857829003601f168201915b5050505050908060020160009054906101000a900473ffffffffffffffffffffffffffffffffffffffff16908060030154905084565b6000602052806000526040600020600091509050805461055a90610ec9565b80601f016020809104026020016040519081016040528092919081815260200182805461058690610ec9565b80156105d35780601f106105a8576101008083540402835291602001916105d3565b820191906000526020600020905b8154815290600101906020018083116105b657829003601f168201915b505050505081565b6105e361086c565b6105eb61086c565b60006001846105fa91906111a7565b90505b60028054905081101561077557846002828154811061061f5761061e6111db565b5b90600052602060002090600402016000015403610762576002818154811061064a576106496111db565b5b90600052602060002090600402016040518060800160405290816000820154815260200160018201805461067d90610ec9565b80601f01602080910402602001604051908101604052809291908181526020018280546106a990610ec9565b80156106f65780601f106106cb576101008083540402835291602001916106f6565b820191906000526020600020905b8154815290600101906020018083116106d957829003601f168201915b505050505081526020016002820160009054906101000a900473ffffffffffffffffffffffffffffffffffffffff1673ffffffffffffffffffffffffffffffffffffffff1673ffffffffffffffffffffffffffffffffffffffff16815260200160038201548152505091505b808061076d9061120a565b9150506105fd565b508091505092915050565b8161040081511161086757600060405180608001604052808481526020018581526020013373ffffffffffffffffffffffffffffffffffffffff168152602001428152509050600281908060018154018082558091505060019003906000526020600020906004020160009091909190915060008201518160000155602082015181600101908161081191906110a6565b5060408201518160020160006101000a81548173ffffffffffffffffffffffffffffffffffffffff021916908373ffffffffffffffffffffffffffffffffffffffff160217905550606082015181600301555050505b505050565b60405180608001604052806000815260200160608152602001600073ffffffffffffffffffffffffffffffffffffffff168152602001600081525090565b6000604051905090565b600080fd5b600080fd5b600080fd5b600080fd5b6000601f19601f8301169050919050565b7f4e487b7100000000000000000000000000000000000000000000000000000000600052604160045260246000fd5b610911826108c8565b810181811067ffffffffffffffff821117156109305761092f6108d9565b5b80604052505050565b60006109436108aa565b905061094f8282610908565b919050565b600067ffffffffffffffff82111561096f5761096e6108d9565b5b610978826108c8565b9050602081019050919050565b82818337600083830152505050565b60006109a76109a284610954565b610939565b9050828152602081018484840111156109c3576109c26108c3565b5b6109ce848285610985565b509392505050565b600082601f8301126109eb576109ea6108be565b5b81356109fb848260208601610994565b91505092915050565b60008060408385031215610a1b57610a1a6108b4565b5b600083013567ffffffffffffffff811115610a3957610a386108b9565b5b610a45858286016109d6565b925050602083013567ffffffffffffffff811115610a6657610a656108b9565b5b610a72858286016109d6565b9150509250929050565b6000819050919050565b610a8f81610a7c565b8114610a9a57600080fd5b50565b600081359050610aac81610a86565b92915050565b600060208284031215610ac857610ac76108b4565b5b6000610ad684828501610a9d565b91505092915050565b600081519050919050565b600082825260208201905092915050565b60005b83811015610b19578082015181840152602081019050610afe565b60008484015250505050565b6000610b3082610adf565b610b3a8185610aea565b9350610b4a818560208601610afb565b610b53816108c8565b840191505092915050565b600073ffffffffffffffffffffffffffffffffffffffff82169050919050565b6000610b8982610b5e565b9050919050565b610b9981610b7e565b82525050565b610ba881610a7c565b82525050565b60006080820190508181036000830152610bc88187610b25565b90508181036020830152610bdc8186610b25565b9050610beb6040830185610b90565b610bf86060830184610b9f565b95945050505050565b600060208284031215610c1757610c166108b4565b5b600082013567ffffffffffffffff811115610c3557610c346108b9565b5b610c41848285016109d6565b91505092915050565b6000608082019050610c5f6000830187610b9f565b8181036020830152610c718186610b25565b9050610c806040830185610b90565b610c8d6060830184610b9f565b95945050505050565b610c9f81610b7e565b8114610caa57600080fd5b50565b600081359050610cbc81610c96565b92915050565b600060208284031215610cd857610cd76108b4565b5b6000610ce684828501610cad565b91505092915050565b60006020820190508181036000830152610d098184610b25565b905092915050565b60008060408385031215610d2857610d276108b4565b5b6000610d3685828601610a9d565b9250506020610d4785828601610a9d565b9150509250929050565b610d5a81610a7c565b82525050565b600082825260208201905092915050565b6000610d7c82610adf565b610d868185610d60565b9350610d96818560208601610afb565b610d9f816108c8565b840191505092915050565b610db381610b7e565b82525050565b6000608083016000830151610dd16000860182610d51565b5060208301518482036020860152610de98282610d71565b9150506040830151610dfe6040860182610daa565b506060830151610e116060860182610d51565b508091505092915050565b60006020820190508181036000830152610e368184610db9565b905092915050565b60008060408385031215610e5557610e546108b4565b5b600083013567ffffffffffffffff811115610e7357610e726108b9565b5b610e7f858286016109d6565b9250506020610e9085828601610a9d565b9150509250929050565b7f4e487b7100000000000000000000000000000000000000000000000000000000600052602260045260246000fd5b60006002820490506001821680610ee157607f821691505b602082108103610ef457610ef3610e9a565b5b50919050565b60008190508160005260206000209050919050565b60006020601f8301049050919050565b600082821b905092915050565b600060088302610f5c7fffffffffffffffffffffffffffffffffffffffffffffffffffffffffffffffff82610f1f565b610f668683610f1f565b95508019841693508086168417925050509392505050565b6000819050919050565b6000610fa3610f9e610f9984610a7c565b610f7e565b610a7c565b9050919050565b6000819050919050565b610fbd83610f88565b610fd1610fc982610faa565b848454610f2c565b825550505050565b600090565b610fe6610fd9565b610ff1818484610fb4565b505050565b5b818110156110155761100a600082610fde565b600181019050610ff7565b5050565b601f82111561105a5761102b81610efa565b61103484610f0f565b81016020851015611043578190505b61105761104f85610f0f565b830182610ff6565b50505b505050565b600082821c905092915050565b600061107d6000198460080261105f565b1980831691505092915050565b6000611096838361106c565b9150826002028217905092915050565b6110af82610adf565b67ffffffffffffffff8111156110c8576110c76108d9565b5b6110d28254610ec9565b6110dd828285611019565b600060209050601f83116001811461111057600084156110fe578287015190505b611108858261108a565b865550611170565b601f19841661111e86610efa565b60005b8281101561114657848901518255600182019150602085019450602081019050611121565b86831015611163578489015161115f601f89168261106c565b8355505b6001600288020188555050505b505050505050565b7f4e487b7100000000000000000000000000000000000000000000000000000000600052601160045260246000fd5b60006111b282610a7c565b91506111bd83610a7c565b92508282019050808211156111d5576111d4611178565b5b92915050565b7f4e487b7100000000000000000000000000000000000000000000000000000000600052603260045260246000fd5b600061121582610a7c565b91507fffffffffffffffffffffffffffffffffffffffffffffffffffffffffffffffff820361124757611246611178565b5b60018201905091905056fea264697066735822122074975c8c898708b0eb537df1ed0ffc08aebdd4d844219f4add96c77d66b1cec064736f6c63430008110033",
  "linkReferences": {},
  "deployedLinkReferences": {}
}