{
  "_format": "hh-sol-artifact-1",
  "contractName": "CryptoForum",
  "sourceName": "contracts/CryptoForum.sol",
  "abi": [
    {
      "inputs": [],
      "stateMutability": "nonpayable",
      "type": "constructor"
    },
    {
      "anonymous": false,
      "inputs": [
        {
          "indexed": false,
          "internalType": "address",
          "name": "sender",
          "type": "address"
        },
        {
          "indexed": false,
          "internalType": "uint256",
          "name": "topicId",
          "type": "uint256"
        },
        {
          "indexed": false,
          "internalType": "uint256",
          "name": "commentId",
          "type": "uint256"
        }
      ],
      "name": "CommentCreated",
      "type": "event"
    },
    {
      "anonymous": false,
      "inputs": [
        {
          "indexed": false,
          "internalType": "address",
          "name": "sender",
          "type": "address"
        },
        {
          "indexed": false,
          "internalType": "uint256",
          "name": "topicId",
          "type": "uint256"
        }
      ],
      "name": "TopicCreated",
      "type": "event"
    },
    {
      "inputs": [
        {
          "internalType": "uint256",
          "name": "",
          "type": "uint256"
        }
      ],
      "name": "comments",
      "outputs": [
        {
          "internalType": "uint256",
          "name": "id",
          "type": "uint256"
        },
        {
          "internalType": "uint256",
          "name": "topicId",
          "type": "uint256"
        },
        {
          "internalType": "string",
          "name": "message",
          "type": "string"
        },
        {
          "internalType": "address",
          "name": "author",
          "type": "address"
        },
        {
          "internalType": "uint256",
          "name": "createdAt",
          "type": "uint256"
        }
      ],
      "stateMutability": "view",
      "type": "function"
    },
    {
      "inputs": [
        {
          "internalType": "string",
          "name": "_message",
          "type": "string"
        },
        {
          "internalType": "uint256",
          "name": "_topicId",
          "type": "uint256"
        }
      ],
      "name": "createComment",
      "outputs": [],
      "stateMutability": "nonpayable",
      "type": "function"
    },
    {
      "inputs": [
        {
          "internalType": "string",
          "name": "_title",
          "type": "string"
        },
        {
          "internalType": "string",
          "name": "_message",
          "type": "string"
        }
      ],
      "name": "createTopic",
      "outputs": [],
      "stateMutability": "nonpayable",
      "type": "function"
    },
    {
      "inputs": [
        {
          "internalType": "uint256",
          "name": "_topicId",
          "type": "uint256"
        },
        {
          "internalType": "uint256",
          "name": "offset",
          "type": "uint256"
        }
      ],
      "name": "getNextComment",
      "outputs": [
        {
          "components": [
            {
              "internalType": "uint256",
              "name": "id",
              "type": "uint256"
            },
            {
              "internalType": "uint256",
              "name": "topicId",
              "type": "uint256"
            },
            {
              "internalType": "string",
              "name": "message",
              "type": "string"
            },
            {
              "internalType": "address",
              "name": "author",
              "type": "address"
            },
            {
              "internalType": "uint256",
              "name": "createdAt",
              "type": "uint256"
            }
          ],
          "internalType": "struct CryptoForum.Comment",
          "name": "",
          "type": "tuple"
        }
      ],
      "stateMutability": "view",
      "type": "function"
    },
    {
      "inputs": [
        {
          "internalType": "address",
          "name": "",
          "type": "address"
        }
      ],
      "name": "nicknames",
      "outputs": [
        {
          "internalType": "string",
          "name": "",
          "type": "string"
        }
      ],
      "stateMutability": "view",
      "type": "function"
    },
    {
      "inputs": [
        {
          "internalType": "string",
          "name": "desiredNickname",
          "type": "string"
        }
      ],
      "name": "setNickname",
      "outputs": [],
      "stateMutability": "nonpayable",
      "type": "function"
    },
    {
      "inputs": [
        {
          "internalType": "uint256",
          "name": "",
          "type": "uint256"
        }
      ],
      "name": "topics",
      "outputs": [
        {
          "internalType": "uint256",
          "name": "id",
          "type": "uint256"
        },
        {
          "internalType": "string",
          "name": "title",
          "type": "string"
        },
        {
          "internalType": "string",
          "name": "message",
          "type": "string"
        },
        {
          "internalType": "address",
          "name": "author",
          "type": "address"
        },
        {
          "internalType": "uint256",
          "name": "createdAt",
          "type": "uint256"
        }
      ],
      "stateMutability": "view",
      "type": "function"
    }
  ],
  "bytecode": "0x608060405234801561001057600080fd5b506112d9806100206000396000f3fe608060405234801561001057600080fd5b506004361061007d5760003560e01c80638ebb4c151161005b5780638ebb4c15146100ee578063909151b514610122578063f6aaa86714610152578063f72ead13146101825761007d565b80630743c33a1461008257806318d9adab1461009e5780631c5d9faa146100d2575b600080fd5b61009c60048036038101906100979190610a5a565b61019e565b005b6100b860048036038101906100b39190610b08565b6102ab565b6040516100c9959493929190610c04565b60405180910390f35b6100ec60048036038101906100e79190610c65565b610421565b005b61010860048036038101906101039190610b08565b610470565b604051610119959493929190610cae565b60405180910390f35b61013c60048036038101906101379190610d34565b61055e565b6040516101499190610d61565b60405180910390f35b61016c60048036038101906101679190610d83565b6105fe565b6040516101799190610ea1565b60405180910390f35b61019c60048036038101906101979190610ec3565b6107ba565b005b806104008151116102a65760006040518060a0016040528060018054905081526020018581526020018481526020013373ffffffffffffffffffffffffffffffffffffffff168152602001428152509050600181908060018154018082558091505060019003906000526020600020906005020160009091909190915060008201518160000155602082015181600101908161023a919061112b565b506040820151816002019081610250919061112b565b5060608201518160030160006101000a81548173ffffffffffffffffffffffffffffffffffffffff021916908373ffffffffffffffffffffffffffffffffffffffff160217905550608082015181600401555050505b505050565b600181815481106102bb57600080fd5b90600052602060002090600502016000915090508060000154908060010180546102e490610f4e565b80601f016020809104026020016040519081016040528092919081815260200182805461031090610f4e565b801561035d5780601f106103325761010080835404028352916020019161035d565b820191906000526020600020905b81548152906001019060200180831161034057829003601f168201915b50505050509080600201805461037290610f4e565b80601f016020809104026020016040519081016040528092919081815260200182805461039e90610f4e565b80156103eb5780601f106103c0576101008083540402835291602001916103eb565b820191906000526020600020905b8154815290600101906020018083116103ce57829003601f168201915b5050505050908060030160009054906101000a900473ffffffffffffffffffffffffffffffffffffffff16908060040154905085565b806000803373ffffffffffffffffffffffffffffffffffffffff1673ffffffffffffffffffffffffffffffffffffffff168152602001908152602001600020908161046c919061112b565b5050565b6002818154811061048057600080fd5b90600052602060002090600502016000915090508060000154908060010154908060020180546104af90610f4e565b80601f01602080910402602001604051908101604052809291908181526020018280546104db90610f4e565b80156105285780601f106104fd57610100808354040283529160200191610528565b820191906000526020600020905b81548152906001019060200180831161050b57829003601f168201915b5050505050908060030160009054906101000a900473ffffffffffffffffffffffffffffffffffffffff16908060040154905085565b6000602052806000526040600020600091509050805461057d90610f4e565b80601f01602080910402602001604051908101604052809291908181526020018280546105a990610f4e565b80156105f65780601f106105cb576101008083540402835291602001916105f6565b820191906000526020600020905b8154815290600101906020018083116105d957829003601f168201915b505050505081565b6106066108bb565b61060e6108bb565b6000805b6002805490508110156107ae578560028281548110610634576106336111fd565b5b9060005260206000209060050201600101540361079b5784820361078c5760028181548110610666576106656111fd565b5b90600052602060002090600502016040518060a001604052908160008201548152602001600182015481526020016002820180546106a390610f4e565b80601f01602080910402602001604051908101604052809291908181526020018280546106cf90610f4e565b801561071c5780601f106106f15761010080835404028352916020019161071c565b820191906000526020600020905b8154815290600101906020018083116106ff57829003601f168201915b505050505081526020016003820160009054906101000a900473ffffffffffffffffffffffffffffffffffffffff1673ffffffffffffffffffffffffffffffffffffffff1673ffffffffffffffffffffffffffffffffffffffff16815260200160048201548152505092506107ae565b81806107979061125b565b9250505b80806107a69061125b565b915050610612565b50819250505092915050565b816104008151116108b65760006040518060a0016040528060028054905081526020018481526020018581526020013373ffffffffffffffffffffffffffffffffffffffff168152602001428152509050600281908060018154018082558091505060019003906000526020600020906005020160009091909190915060008201518160000155602082015181600101556040820151816002019081610860919061112b565b5060608201518160030160006101000a81548173ffffffffffffffffffffffffffffffffffffffff021916908373ffffffffffffffffffffffffffffffffffffffff160217905550608082015181600401555050505b505050565b6040518060a00160405280600081526020016000815260200160608152602001600073ffffffffffffffffffffffffffffffffffffffff168152602001600081525090565b6000604051905090565b600080fd5b600080fd5b600080fd5b600080fd5b6000601f19601f8301169050919050565b7f4e487b7100000000000000000000000000000000000000000000000000000000600052604160045260246000fd5b6109678261091e565b810181811067ffffffffffffffff821117156109865761098561092f565b5b80604052505050565b6000610999610900565b90506109a5828261095e565b919050565b600067ffffffffffffffff8211156109c5576109c461092f565b5b6109ce8261091e565b9050602081019050919050565b82818337600083830152505050565b60006109fd6109f8846109aa565b61098f565b905082815260208101848484011115610a1957610a18610919565b5b610a248482856109db565b509392505050565b600082601f830112610a4157610a40610914565b5b8135610a518482602086016109ea565b91505092915050565b60008060408385031215610a7157610a7061090a565b5b600083013567ffffffffffffffff811115610a8f57610a8e61090f565b5b610a9b85828601610a2c565b925050602083013567ffffffffffffffff811115610abc57610abb61090f565b5b610ac885828601610a2c565b9150509250929050565b6000819050919050565b610ae581610ad2565b8114610af057600080fd5b50565b600081359050610b0281610adc565b92915050565b600060208284031215610b1e57610b1d61090a565b5b6000610b2c84828501610af3565b91505092915050565b610b3e81610ad2565b82525050565b600081519050919050565b600082825260208201905092915050565b60005b83811015610b7e578082015181840152602081019050610b63565b60008484015250505050565b6000610b9582610b44565b610b9f8185610b4f565b9350610baf818560208601610b60565b610bb88161091e565b840191505092915050565b600073ffffffffffffffffffffffffffffffffffffffff82169050919050565b6000610bee82610bc3565b9050919050565b610bfe81610be3565b82525050565b600060a082019050610c196000830188610b35565b8181036020830152610c2b8187610b8a565b90508181036040830152610c3f8186610b8a565b9050610c4e6060830185610bf5565b610c5b6080830184610b35565b9695505050505050565b600060208284031215610c7b57610c7a61090a565b5b600082013567ffffffffffffffff811115610c9957610c9861090f565b5b610ca584828501610a2c565b91505092915050565b600060a082019050610cc36000830188610b35565b610cd06020830187610b35565b8181036040830152610ce28186610b8a565b9050610cf16060830185610bf5565b610cfe6080830184610b35565b9695505050505050565b610d1181610be3565b8114610d1c57600080fd5b50565b600081359050610d2e81610d08565b92915050565b600060208284031215610d4a57610d4961090a565b5b6000610d5884828501610d1f565b91505092915050565b60006020820190508181036000830152610d7b8184610b8a565b905092915050565b60008060408385031215610d9a57610d9961090a565b5b6000610da885828601610af3565b9250506020610db985828601610af3565b9150509250929050565b610dcc81610ad2565b82525050565b600082825260208201905092915050565b6000610dee82610b44565b610df88185610dd2565b9350610e08818560208601610b60565b610e118161091e565b840191505092915050565b610e2581610be3565b82525050565b600060a083016000830151610e436000860182610dc3565b506020830151610e566020860182610dc3565b5060408301518482036040860152610e6e8282610de3565b9150506060830151610e836060860182610e1c565b506080830151610e966080860182610dc3565b508091505092915050565b60006020820190508181036000830152610ebb8184610e2b565b905092915050565b60008060408385031215610eda57610ed961090a565b5b600083013567ffffffffffffffff811115610ef857610ef761090f565b5b610f0485828601610a2c565b9250506020610f1585828601610af3565b9150509250929050565b7f4e487b7100000000000000000000000000000000000000000000000000000000600052602260045260246000fd5b60006002820490506001821680610f6657607f821691505b602082108103610f7957610f78610f1f565b5b50919050565b60008190508160005260206000209050919050565b60006020601f8301049050919050565b600082821b905092915050565b600060088302610fe17fffffffffffffffffffffffffffffffffffffffffffffffffffffffffffffffff82610fa4565b610feb8683610fa4565b95508019841693508086168417925050509392505050565b6000819050919050565b600061102861102361101e84610ad2565b611003565b610ad2565b9050919050565b6000819050919050565b6110428361100d565b61105661104e8261102f565b848454610fb1565b825550505050565b600090565b61106b61105e565b611076818484611039565b505050565b5b8181101561109a5761108f600082611063565b60018101905061107c565b5050565b601f8211156110df576110b081610f7f565b6110b984610f94565b810160208510156110c8578190505b6110dc6110d485610f94565b83018261107b565b50505b505050565b600082821c905092915050565b6000611102600019846008026110e4565b1980831691505092915050565b600061111b83836110f1565b9150826002028217905092915050565b61113482610b44565b67ffffffffffffffff81111561114d5761114c61092f565b5b6111578254610f4e565b61116282828561109e565b600060209050601f8311600181146111955760008415611183578287015190505b61118d858261110f565b8655506111f5565b601f1984166111a386610f7f565b60005b828110156111cb578489015182556001820191506020850194506020810190506111a6565b868310156111e857848901516111e4601f8916826110f1565b8355505b6001600288020188555050505b505050505050565b7f4e487b7100000000000000000000000000000000000000000000000000000000600052603260045260246000fd5b7f4e487b7100000000000000000000000000000000000000000000000000000000600052601160045260246000fd5b600061126682610ad2565b91507fffffffffffffffffffffffffffffffffffffffffffffffffffffffffffffffff82036112985761129761122c565b5b60018201905091905056fea2646970667358221220119a35c7eca1b60a3a170b6a657e3cd3ca37414c6fedac2fa2e52b63dca536b064736f6c63430008110033",
  "linkReferences": {},
  "deployedLinkReferences": {}
}